:100000000C9440000C940C080C945D000C945D0062
:100010000C945D000C945D000C94F8080C945D0049
:100020000C945D000C945D000C945D000C943308FE
:100030000C945D000C9402080C945D000C945D001F
:100040000C945D000C945D000C945D000C94E30D29
:100050000C945D00560163019F019C01A901AB0155
:10006000AD012F023602900243024B0252025702A8
:100070006002C604C804040501050E05100512053A
:1000800011241FBECFE5D4E0DEBFCDBF21E0A4E642
:10009000B0E001C01D92AD3BB207E1F710E0A0E671
:1000A000B0E0E6E1F3E202C005900D92A436B1079C
:1000B000D9F70E9463100C9489110C9400000895E4
:1000C0000E9430010E9412030E94C7030E94130481
:1000D0000E94AA040C94000208950E941E020E942D
:1000E000E301882319F00E94B30402C00E94390181
:1000F0000E941A030C94350380E00E944B0F81117B
:1001000006C040E060E085E390E40E94690FAA9A8F
:10011000089581E00E944B0F811132C080916600EA
:10012000882359F020E030E043E068EE73E081E09E
:100130000E94530F20E030E017C02CE231E043E092
:1001400068EE73E081E00E94530F0E94E801811184
:1001500011C00E94FA0190916400981758F49F5FB3
:10016000909364002CE231E043E068EE73E080E0BD
:100170000E94530F9091660081E08927809366006A
:100180000895A99A0E94E80181111BC00E944B0F9B
:10019000811117C00E94FA0190916400981758F4D9
:1001A0009F5F909364002CE231E041E068EB7BE0DC
:1001B00080E00C94530F40E060E085E390E40C9401
:1001C000690F0895A89A0E94E80181111BC00E943E
:1001D0004B0F811117C00E94FA019091640098178B
:1001E00058F49F5F9093640024E630E041E064EFB0
:1001F00071E080E00C94530F40E060E085E390E410
:100200000C94690F0895CF93C82F0E94E3018823AF
:1002100021F08C2FCF910C949404809168008093EE
:100220006700C0936800109266001092640040E07E
:1002300060E085E390E40E94690F40E061E085E3BF
:1002400092E00E94690F40E062E085E394E00E9442
:10025000690F40E063E085E391E0CF910C94690F72
:10026000109268001092660010926500109264006F
:1002700008950E940C0281110CC081E00E944B0F76
:1002800081116FC024E630E041E068EC70E081E06D
:1002900018C0E09168008E2F90E08730910508F03B
:1002A0005EC0FC01E65DFF4F0C94A01082E00E944E
:1002B0004B0F811156C024E630E041E068EC70E05D
:1002C00082E00C94530F82E00E944B0F811149C0D1
:1002D000809166008823B1F080E00E94D80380916D
:1002E0006700809368001092640040E063E085E35B
:1002F00094E00E94690F40E060E085E390E40E9492
:10030000690F13C024E630E044E168EE73E082E058
:100310000E94530F0E94E801811123C024E630E0BF
:1003200044E168EE73E00E94530F9091660081E013
:1003300089278093660008950E94EC0181110C9436
:100340007C0080916500853031F0863031F084305A
:10035000B1F70C9489000C94C1000C94E200109247
:1003600068000895CF93C82F0E94E301882321F0ED
:100370008C2FCF910C941705C43011F0C0936500F9
:10038000CF910895CF93DF93EC01BC016D5F7F4F58
:1003900044E08BE690E00E942F10BE01675F7F4F24
:1003A00046E08FE690E00E942F1086E08093750073
:1003B000DF91CF910895809376000E94D00C83E066
:1003C00080937500089580916A00869581700895E4
:1003D00080916A008170089580916A0082FB88276D
:1003E00080F908952091690030E0A8EEB3E00E9402
:1003F000A610089580916A00869586958695089541
:1004000081E08093760010927500089542E0BC016F
:1004100089E690E00C942F1081E040916B005091A0
:100420006C0060916D0070916E00452B462B472B40
:1004300009F480E008958091760008950E94D10D1E
:1004400081116EC0E09175008E2F90E0883091058B
:1004500008F064C0FC01EF5CFF4F0C94A01061E059
:1004600080E090E00E94AF0D81E055C086E790E00B
:100470000E94D80D8091760018161CF081E08093C0
:10048000760084E048C046E750E061E080E090E01C
:100490000E948F0D3FC06AE081E090E00E94AF0DA6
:1004A00085E039C08BE690E00E94D80D07C04BE68E
:1004B00050E06AE081E090E00E948F0D87E02BC061
:1004C00040E06AE08BE690E00E94441081110EC08B
:1004D0004FEF6AE08BE690E00E944410882331F0F1
:1004E0004AE060E08BE690E00E943B10809176004D
:1004F0000E94D00C82EC91E00E94CB0C40916B00EA
:1005000050916C0060916D0070916E00809173004D
:100510000E94CC0882E080937500089510927500C7
:1005200008951F93CF93DF93182FE9010E940C02C7
:10053000882309F447C08881863071F40E944A0CF0
:1005400081130AC08981811118C081E080937700EE
:100550000E94030183E034C088818B3081F40E94C3
:100560004A0C18130CC019810E941B02181729F09D
:1005700089810E94DB010E94190480E021C08881EA
:100580008F3079F419810E941B0218131BC00E943E
:10059000220482E080937700CE0102960E94060238
:1005A00011C0843079F41A810E941B0218130AC00A
:1005B0006B8189810E942F038B810E94B20181E0AF
:1005C0000E94D80381E0DF91CF911F9108951F937E
:1005D000CF93DF93E9010E940C028823F1F0888118
:1005E0008D3071F419810E941B02181316C00E94ED
:1005F000E408CE0102960E9406020E9422040DC069
:10060000883059F40E941B029A81891306C00E9407
:100610001E046B8189810E942F0381E0DF91CF91BD
:100620001F91089587EE92E00E94520C81E992E0BA
:100630000C944D0C80917700813021F078F082305D
:1006400031F00AC00E94DB03882341F005C00E94FC
:10065000F703811101C00895109277000895E82FE3
:10066000F0E0E058FF4F608308950E940C02882359
:1006700009F48CC080917F00813009F45EC090F055
:10068000823009F475C0833009F480C01092800074
:1006900082E08093780010927E0010927F0010928A
:1006A000790074C090918000892F87FD09C0E82FE0
:1006B000F0E0EF57FF4F2081263021F18F5FF5CF1B
:1006C000A1E8B0E0FD0180E0981729F021912630E3
:1006D000C9F08F5FF9CF892F8F3750F4E82FF0E002
:1006E000EF57FF4F20812450223060F08F5FF4CF0E
:1006F00080E0981731F02D912450223018F08F5F50
:10070000F8CF80E880938000803821F41092800038
:1007100082E011C082E080937F000E94F201AB0171
:10072000BC018AE790E00E94B70EE0918000F0E003
:10073000EF57FF4F80810C94030180917800823045
:1007400019F480917E0011C00E94F201AB01BC013E
:100750008AE790E00E94B70E809178000E94030122
:10076000809179008093800082E080937F000895DB
:100770008AE790E00E94D10E811108C0809180002C
:100780008F5F8093800010927F00089508951092EB
:10079000800040E862E081E890E00E943B10109207
:1007A0007F0010927E0010927800109279000895D8
:1007B00080937F000895CF93DF9300D0CDB7DEB74D
:1007C00089E089830E941B028A832BE040E062E07B
:1007D000CE0101960E94570C9FEF980F81E0923056
:1007E00008F080E00F900F90DF91CF910895CF93A4
:1007F000DF9300D0CDB7DEB78EE089830E941B0265
:100800008A832BE040E062E0CE0101960E94570C03
:100810009FEF980F81E0923008F080E00F900F90EA
:10082000DF91CF91089583E080930101109202013E
:1008300008951092010110920201089583E08093BF
:100840000101089582E080930201089580E00E94F2
:100850004B0F811106C040E060E085E390E40E9408
:10086000690FA99A089581E00E944B0F811108C079
:1008700022E330E041E064E670E081E00C94530F45
:10088000089581E00E944B0F811115C080910501F0
:10089000882319F020E030E002C02CE231E043E090
:1008A00068EE73E081E00E94530F9091050181E0B2
:1008B000892780930501089581E00E944B0F8111E3
:1008C00032C080910501882359F020E030E043E0F8
:1008D00060E971E081E00E94530F20E030E017C032
:1008E00028EC30E043E060E971E081E00E94530FC2
:1008F0000E94E801811111C00E94FA019091030148
:10090000981758F49F5F9093030128EC30E043E080
:1009100060E971E080E00E94530F9091050181E051
:10092000892780930501089590910701909306010E
:1009300080930701109205011092030140E060E0EE
:1009400085E390E40E94690F40E061E085E392E076
:100950000C94690F10920701109205011092040186
:100960001092030108950E940C02811102C00C94A0
:100970003304E09107018E2F90E08730910508F055
:1009800053C0FC01E75CFF4F0C94A0100C9433049F
:1009900081E00E944B0F811149C08091050188239D
:1009A000B1F0809106018093070180E00E94D80396
:1009B0001092030140E061E085E392E00E94690F3C
:1009C00040E060E085E390E40E94690F13C024E6F4
:1009D00030E044E168EE73E081E00E94530F0E9432
:1009E000E801811123C024E630E044E168EE73E0C1
:1009F0000E94530F9091050181E0892780930501A2
:100A000008950E94EC0181110C9426048091040148
:100A1000853031F0863031F0843041F40C9441045B
:100A2000A99808950C945C0410920701089580938E
:100A3000040108951EBC1DBC1CBC89B78F7E89BFF4
:100A40000895CF93C82F0E941A0510921101109299
:100A5000500110924F0110925401E0912C01F0913D
:100A60002D01309739F085E0EC33F80719F08C2F21
:100A7000CF910994CF91089508958FB7F8942CE3FE
:100A800035E030932D0120932C018FBF48E853E1CE
:100A900060E070E088E091E00E94B70E81E0809312
:100AA00056011092550108958FB7F8942CE335E064
:100AB00030932D0120932C018FBF1092550181E0BE
:100AC0008093560148E853E160E070E088E091E0EF
:100AD0000C94B70E8FB7F8942CE335E030932D01CA
:100AE00020932C018FBF10924E0182E0809355011C
:100AF00044E650E060E070E088E091E00C94B70ECE
:100B00002BE02EBD1FBC9C0150E040E060E472E48D
:100B10008FE090E00E947E102F5F3F4F50E040E05A
:100B200086E0220F331F441F551F8A95D1F760E0DE
:100B300070EC88EA90E00E947E103BBD2ABD89B728
:100B4000806189BF08959FB7F8942CE335E0309316
:100B50002D0120932C019FBF813021F483E08093ED
:100B60005B010895823019F410925B01089584E0CE
:100B7000F6CF9FB7F8942CE335E030932D01209306
:100B80002C019FBF8130B9F4909156019F5F9093E3
:100B90005601109255019091560197FF1BC080930A
:100BA00056018093550148E853E160E070E088E029
:100BB00091E00C94B70E823071F448E853E160E0A4
:100BC00070E088E091E00E94B70E81E080935601CA
:100BD0001092550108958111FDCF48E853E160E07E
:100BE00070E088E091E00E94B70EF2CF9FB7F894D2
:100BF0002CE335E030932D0120932C019FBF8130F1
:100C000061F444E650E060E070E088E091E00E942A
:100C1000B70E84E0809355010895823061F41092FC
:100C20004E018093550144EF51E060E070E088E0B0
:100C300091E00C94B70E84E0F4CFCF92EF920F9333
:100C40001F93CF93DF939091160160E174E09111AF
:100C500011C090914E019923A9F020914E0130E0EE
:100C6000A4E3B0E00E94A610685F7D4F8F4F9F4FB6
:100C7000660F771FCB01DF91CF911F910F91EF90FE
:100C8000CF9008951091510100914F01C12FD0E0F4
:100C9000882301F1CE0101969595879580329105C3
:100CA00014F480E290E0815080935101C090510192
:100CB0000E9413112FE1E22E0FEF1FEF2FEF3FE7FE
:100CC00040E00E94E00F94E3899FB0011124605F2F
:100CD0007B4FD0CF802F0E9414102196282F2C9F5D
:100CE000C0012D9F900D1124811594403CF4802F5C
:100CF0000E941410189F800D1124D5CF8FEFD4CFF0
:100D0000CF93DF931092540191E090930C01CEE2C7
:100D1000D1E08063888380914E0189836A8344E0B7
:100D20006BE171E081E391E00E942F1089E08F83F5
:100D300068E0CE010E945110888783E08093110102
:100D400088E092E0DF91CF910C94800580911801AA
:100D50008F708B3009F456C058F48A3079F1809145
:100D60001601882309F44DC0609119018AE024C05E
:100D70008C3009F462C08D3091F780911601811199
:100D800040C082E00E94210548E853E160E070E045
:100D900088E091E00E94B70E83E0809355011092A5
:100DA0004E0144E062E171E080E291E00E94201097
:100DB000882341F060E08BE00C948006809116015E
:100DC000811107C084E08093110180E29BEC0C94B8
:100DD000800583E08093550144E06BE171E08AE493
:100DE00091E00E942F1048E853E160E070E088E055
:100DF00091E00E94B70E80911A01609119018F3F16
:100E0000D1F60895809116018111FBCF44E062E193
:100E100071E081E291E00E942010882399F282E043
:100E20000E942105109255018091200180934E016E
:100E300080914E0180935601D6CF82E00E94210519
:100E400080911601811126C08FB7F8942CE335E00C
:100E500030932D0120932C018FBF80911A018F3F79
:100E600069F410924E0183E08093550148E853E104
:100E700060E070E088E091E00C94B70E82E080932F
:100E8000550148EE53E060E070E088E091E00E9498
:100E9000B70E98CF48E853E160E070E088E091E059
:100EA0000E94B70E44E06BE171E08AE491E00E9499
:100EB0002F1082E08093550160E08BE00E94800655
:100EC00081E080935601089580915001813051F462
:100ED00082E08093110181E00E941D06009771F06D
:100EE0000C94800580915001823031F485E080932C
:100EF000110185E090E0F4CF1092110108958091E6
:100F0000160181110BC080914E01811107C084E050
:100F10008093110180E29BEC0C94800520911A01D2
:100F200080914E01281771F12F3F61F180910F01DF
:100F300090915E019813EBCF80911F0189508093AF
:100F40006701809167018B3040F44091670160E256
:100F500071E08DE591E00E942F108091190180933E
:100F6000690180911A0180936801809118018F7046
:100F70008A3021F481E080935C01C9CF8B3039F64F
:100F800082E0F9CF809118018F708A50990B0297F7
:100F900048F02F3F29F0609119018AE00C948006F7
:100FA0000C94640780915C01882319F02F3F99F716
:100FB000089580911F018950809367018091670196
:100FC0008B3040F44091670160E271E08DE591E083
:100FD0000E942F10609119016093690190911A018C
:100FE00090936801809118018F708B3039F482E002
:100FF00080935C019F3FA1F28BE0D0CF8A30D1F784
:1010000081E0F6CF1F920F920FB60F9211240F902E
:101010000FBE0F901F9018951F920F920FB60F9250
:1010200011242F933F934F935F936F937F938F93ED
:101030009F93AF93BF93EF93FF930E941A0581E0B4
:1010400080931101FF91EF91BF91AF919F918F918B
:101050007F916F915F914F913F912F910F900FBEB4
:101060000F901F9018951F920F920FB60F92112498
:101070002F933F934F935F936F937F938F939F93A0
:10108000AF93BF93EF93FF930E941A050E94CE0F78
:1010900090912B01933108F07CC0E0912B01F0E09E
:1010A000E85EFE4F808390911701913009F452C0A1
:1010B00030F0923091F182E0809317012EC0A09120
:1010C0002B01E0915401B0E0A85EBE4FF0E0E95C76
:1010D000FE4F9C918081981741F0809152018F5F63
:1010E0008093520110925401E6CF809154018F5F9A
:1010F000809354019091540180915301981748F4C2
:10110000E0915401F0E0E95CFE4F80810E94CC0F39
:1011100004C0109254011092520180912B018F5FF4
:1011200080932B0188E092E00E94800581E080930B
:101130001101FF91EF91BF91AF919F918F917F919D
:101140006F915F914F913F912F910F900FBE0F9034
:101150001F901895E0915401F0E0E25DFE4F908100
:10116000891719F010920C01BDCF809154018F5F47
:101170008093540180915401893030F4E0915401FE
:10118000F0E0E25DFE4FC1CF10920C0110925401CD
:10119000C4CF10922B01C6CF809316014093120149
:1011A00050931301609314017093150180911601FF
:1011B000882339F081E080935501CB01BA010C946A
:1011C000611110925501F9CF8091500181110EC02B
:1011D00080910C0181110AC080911101811106C01A
:1011E0006FEF8DE00E94800681E0089580E0089511
:1011F0001F920F920FB60F9211242F933F934F938C
:101200005F936F937F938F939F93AF93BF93CF938E
:10121000EF93FF930E941A0580911101823009F427
:1012200004C148F4882309F447C08130F9F081E013
:101230008093110141C0843009F485C008F400C1D5
:101240008530A9F780914F01853008F005C1809164
:101250004F018F5F80934F0182E08093110180E006
:101260000E941D06009709F08AC026C01092540102
:101270001092110180911701813081F138F0823094
:1012800009F444C082E0809317014AC010922B01F8
:1012900080911A018F3F21F481E00E9421050CC04A
:1012A00085E08093110185E090E00E94800582E056
:1012B0008093170180935001FF91EF91CF91BF91DF
:1012C000AF919F918F917F916F915F914F913F91DE
:1012D0002F910F900FBE0F901F90189510922B0119
:1012E00010920C0110922B010E9464078091100152
:1012F000882311F310921001E0910D01F0910E017D
:101300003097D1F288E191E00995D6CF80912B01F9
:10131000893020F080912B01843128F010920C014B
:1013200010922B0110C010922B0160911F01E62F2B
:10133000F0E0E95EFE4FC081615088E191E00E94DB
:101340005110C81719F00E946407B6CF8091180198
:10135000982F92959F70913081F1A0F0923091F189
:10136000933089F790911A0120914E01921779F1EB
:101370009F3F69F184E08093110180E29BEC0E9421
:1013800080059ACF8A3009F097CF80911A018F3F5C
:1013900009F092CF8091190181118ECF80911F01A8
:1013A000803109F089CF81E08093100110925501BE
:1013B0006FEF8BE00E9480067FCF8F7090E00E94DD
:1013C000A6067ACF8F7090E00E947F0775CF8F704E
:1013D0008B3061F444E062E171E08BE191E00E94C6
:1013E0002010882339F21092110156CF8A30B1F4BF
:1013F00044E062E171E08BE191E00E9420108823DB
:1014000009F4B8CF1092540185E08093110180E671
:1014100098E10E948005109252014ECF8C3009F461
:10142000A9CF8D3009F048CF8ECF10925401109281
:101430002B01809137010E94CC0F109217013CCFF5
:101440001092540110922B0181E08093170180913A
:101450002E010E94CC0F30CF81E0809311011092B9
:10146000500110924F0180912C0190912D01009715
:1014700009F422CF8C53954009F41ECF0E94E40852
:10148000E0912C01F0912D0180E0099515CFCF93CB
:10149000C1E0C09316011092120110921301109234
:1014A0001401109215011092110110920C018FE19C
:1014B00080935101109252011092530110925001E9
:1014C00010924E011092540143E160E087E391E0F5
:1014D0000E943B104AE060E08DE591E00E943B10E5
:1014E00043E160E088E191E00E943B1049E060E068
:1014F0008EE291E00E943B1010922B0182E08093DB
:10150000170110925501C093560110925B01109281
:101510005C01109258011092570110925A011092DA
:1015200059011092100110920E0110920D011092AB
:101530000F018CE395E090932D0180932C0185B7EA
:101540008D7F85BF85B7816085BF8BB780648BBF7A
:10155000CF910895EF92FF920F931F93CF93DF9354
:1015600090910C01911154C090915001911150C073
:101570009091110191114CC02B3008F047C0C22F3F
:101580007B01DFB7F89410932D0100932C0191E0BB
:101590009093500192E09093110110925401109297
:1015A0004F018093370180914E0180933801409321
:1015B000390144E062E171E08AE391E00E942F107A
:1015C000CC2349F0E114F10431F04C2FB7018FE343
:1015D00091E00E942F1089E08C0F8093530180913D
:1015E000530180933E0168E06C0F87E391E00E9415
:1015F0005110EC2FF0E0E95CFE4F808781E00E9403
:101600001D06009711F00E948005DFBF81E001C038
:1016100080E0DF91CF911F910F91FF90EF9008959F
:101620000F931F93CF93DF9300D000D01F92CDB7BD
:10163000DEB780910F018823B1F00E94D00F88237C
:10164000E1F00E94CE0F10920C0110922B0110922B
:10165000540144E650E060E070E088E091E00E94D0
:10166000B70E0E9464070F900F900F900F900F908D
:10167000DF91CF911F910F91089580911201909168
:101680001301A0911401B0911501892B8A2B8B2B8A
:1016900019F180911601882309F451C080915501F8
:1016A000813041F0C8F0823039F18330A9F11092D5
:1016B000550112C004E515E020E04FEF70E060E056
:1016C0008CE10E94AA0A81111092550188E091E0F4
:1016D0000E94D10E882359F3809112019091130139
:1016E000A0911401B0911501892B8A2B8B2B09F045
:1016F000A2C010925C01B7CF44E06AE471E0CE0171
:1017000001960E942F100DE315E024E040E0BE0199
:101710006F5F7F4F8DE1D5CF80915601898344E083
:101720006AE471E0CE0102960E942F1009EB15E0E9
:1017300025E040E0BE016F5F7F4F8BE1C2CF80911B
:101740004E018111B4CF80915501823009F4BECF92
:1017500068F5882309F43FC0813009F0A8CF809153
:10176000160189830AE615E021E040E0BE016F5FC3
:101770007F4F8CE10E94AA0A882359F048E853E180
:1017800060E070E088E091E00E94B70E82E0809314
:10179000550188E091E00E94D10E81119DCF1092F9
:1017A0000C01109250011092110181CF8330F9F099
:1017B000843009F07CCF88E091E00E94D10E811145
:1017C0008BCF48E853E160E070E088E091E00E9450
:1017D000B70E83E009C048E853E160E070E088E0BC
:1017E00091E00E94B70E81E08093550175CF06EF1E
:1017F00015E020E040E070E060E08AE10E94AA0A83
:10180000882319F084E08093550188E091E00E94DC
:10181000D10E811161CF10920C01109250011092E3
:10182000110144EF51E060E070E088E091E00E9437
:10183000B70E84E0D9CF80914E01811105C080910F
:101840001601882309F455CF80910C0181110BCF2B
:1018500080915C01813051F008F405CF823009F0AD
:1018600048CFE0915901F0915A0104C0E09157012D
:10187000F0915801309709F43CCF40916701609195
:101880006901809168012DE531E00995882309F40B
:10189000EACE2FCF809156010895909358018093FE
:1018A0005701089590935A01809359010895CF925A
:1018B000DF92EF92FF920F931F93C0901201D0908E
:1018C0001301E0901401F0901501CD28CE28CF2807
:1018D00019F410925B014AC030914E01311104C0DD
:1018E000309116013323A9F3322F262FBC0190919A
:1018F0005B019230E9F138F4992351F09130A9F06D
:1019000010925B0110C09330E1F1943011F3F8CFE5
:1019100048E853E160E070E088E091E00E94B70E93
:1019200081E080935B0180E02FC003EA15E0832F04
:1019300080620E94AA0A882359F048E853E160E0D7
:1019400070E088E091E00E94B70E82E080935B0136
:1019500088E091E00E94D10E8111E5CF10925B01E9
:1019600010920C01109250011092110182E00CC0F3
:1019700088E091E00E94D10E8111D5CF10925B01D9
:10198000EDCF10925B0181E01F910F91FF90EF90DE
:10199000DF90CF90089590930E0180930D010895EC
:1019A00080930F0108951092B4011092B301109228
:1019B000BC011092BB011092B5011092B2011092BD
:1019C000B1014AE06FEF8AE691E00C943B10809100
:1019D000BC01882309F477C0E19975C087EB91E0D9
:1019E0000E94D10E811109C01092BC011092BB015E
:1019F0001092B4011092B30108958091BC0181301E
:101A000009F041C09091BB018091B601981700F593
:101A10008FB7F8942091B3013091B4013FBB2EBB36
:101A2000E09AE091BB019DB3F0E0E659FE4F908350
:101A30008FBF8091BB018F5F8093BB018091B30109
:101A40009091B40101969093B4018093B3010895ED
:101A50001092BB018091B501882339F01092B40136
:101A60001092B3011092BC0108952091B6018091AB
:101A7000B3019091B401821B91099093B4018093BA
:101A8000B30182E01EC08091BC01823011F59091BB
:101A9000BB018091B6019817B8F4E091BB01A09109
:101AA000BB01F0E0E659FE4F8091B1019091B20187
:101AB000A80FB92FB11D90818C91981709F4B9CF57
:101AC00083E08093BC0108951092BC011092BB0189
:101AD00008958091BC018330B1F72FB7F8948091BD
:101AE000B3019091B401AC014F5F5F4F5093B401CB
:101AF0004093B3019FBB8EBB8091B1019091B20125
:101B0000E091BB0131E03E0F3093BB01E80FF92FAC
:101B1000F11D80818DBBE29AE19A2FBFB2CF9C016B
:101B2000260F311D2F3F3140C8F46B30B8F490932D
:101B3000B4018093B3015093B2014093B10160931B
:101B4000B6011092B50181E08093BC0148EC50E0F1
:101B500060E070E087EB91E00C94B70E08959C0173
:101B6000260F311D2F3F3140D8F46B30C8F49093CD
:101B7000B4018093B3018AE691E09093B20180931F
:101B8000B1016093B60181E08093B5018093BC01FF
:101B900048EC50E060E070E087EB91E00C94B70E09
:101BA00008959091BC0181E0911101C080E00895F9
:101BB0002091B601222331F04091B6016AE671E02E
:101BC0000C942F1008951F920F920FB60F921124AC
:101BD0002F933F934F935F936F937F938F939F9335
:101BE000AF93BF93EF93FF9380917D0190917E011E
:101BF000A0917F01B09180010196A11DB11D80933C
:101C00007D0190937E01A0937F01B093800180912C
:101C10007801815E80937801809178018D37C0F0E2
:101C2000809178018D578093780180917D0190910A
:101C30007E01A0917F01B09180010196A11DB11D8F
:101C400080937D0190937E01A0937F01B0938001EA
:101C500080917601909177018F38914078F580914D
:101C600076019091770101969093770180937601A8
:101C70000E946C008091810190918201A09183016A
:101C8000B09184010196A11DB11D809381019093B3
:101C90008201A0938301B0938401FF91EF91BF91E2
:101CA000AF919F918F917F916F915F914F913F91F4
:101CB0002F910F900FBE0F901F90189510927701E3
:101CC000109276018091740191E0892780937401CC
:101CD00090937501809174018111CACF809179012F
:101CE00090917A01A0917B01B0917C010196A11D98
:101CF000B11D8093790190937A01A0937B01B093F9
:101D00007C01B6CF89B7826089BF7894089510921C
:101D1000810110928201109283011092840110922D
:101D20007D0110927E0110927F011092800110922D
:101D3000740181E0809375011092790110927A010B
:101D400010927B0110927C01109278011092770121
:101D50001092760108952FB7F89460917D017091EB
:101D60007E0180917F01909180012FBF0895CF92D5
:101D7000DF92EF92FF92CF93DF93EC016A017B0138
:101D80000E94AB0EC60ED71EE81EF91EC882D9826D
:101D9000EA82FB82DF91CF91FF90EF90DF90CF90AE
:101DA0000895CF92DF92EF92FF920F931F93FC0161
:101DB000C080D180E280F380F7FE08C080E01F91F0
:101DC0000F91FF90EF90DF90CF9008950E94AB0E9F
:101DD00097018601062717272827392737FD05C0D1
:101DE0006C157D058E059F0548F781E0E8CF83B728
:101DF0008B7F83BF83B7826083BF83B7816083BFDC
:101E000083B7886083BF83B78F7B83BF87ED8CBF29
:101E100008950F931F93CF93DF93FB012285222315
:101E2000C1F0EB018C01CB010E94D10E811111C0D8
:101E3000E985E11115C08C81811110C01A869FB708
:101E4000F894F801FF272081812F809582238083D9
:101E50009FBFDF91CF911F910F91089581508C8387
:101E6000F0E0EE0FFF1FEC0FFD1F4581568170E083
:101E700060E0CE010E94B70E898591E089278987AD
:101E80008D819E81892B29F39FB7F894F801FF2754
:101E900080818127DCCF9BE0899FF0011124EB57E3
:101EA000FE4F828508959BE0989FF0011124EB5727
:101EB000FE4F36832583621B730B70876783118601
:101EC000448321E0228740E050E0BA01CF010C9426
:101ED000B70E2BE0629FF0011124EB57FE4F1286E4
:101EE0001186009779F05FB7F8949C01207833272A
:101EF000FC01413061F4232B31F4FF278081892BD1
:101F000080835FBF0895EF77FF27F160F7CF4230FE
:101F100051F4232B21F4FF2780818927F1CFEF771C
:101F2000FF27F160F9CF232B31F4FF272081892F80
:101F300080958223E5CFEF77FF27F160F7CFA69A50
:101F4000A19AA29AA09AAE98A998AA98A898E5E80A
:101F5000F1E0128616821582108617823B9681E088
:101F6000E13BF807B1F7089565E871E085E390E497
:101F70000E94090F60E971E085E392E00E94090F79
:101F80006BE971E085E394E00E94090F66EA71E075
:101F900085E391E00C94090F8CB908958CB10895F4
:101FA0008BB1887119F01BB881E0089580E0089525
:101FB00010BC83E289B988ED8AB986E880BD0895AE
:101FC0004F925F926F927F928F929F92AF92BF9249
:101FD000CF92EF920F931F933901842E912CB12C45
:101FE000A12C9B01AC01281939094A095B098C2DE8
:101FF0008E19990BDC010E94C010A30198012819C9
:1020000039094A095B090E947E108E2D820F1F91AB
:102010000F91EF90CF90BF90AF909F908F907F9057
:102020006F905F904F900895282F882339F090E0AB
:1020300081E0880F9F5F2913FCCF089581E0089508
:10204000282FDB01FC018E2F821B841710F081E00A
:10205000089591918D919817B1F380E00895362FEE
:10206000FB012E2F231B241708F008952191DC017A
:102070002D93CD01F6CF282FFC018E2F821B8417C4
:1020800008F008956193F9CF282FFC018E2F821B51
:10209000861710F081E0089581918417B9F380E0EC
:1020A0000895282FFC0180E031E99E2F921B96179E
:1020B00008F008959191892798E080FD83278695FF
:1020C0009150D9F7F2CF0E945F000E94F70E0E9454
:1020D000870E0E94D80F0E94D30C0E94470A0E94CC
:1020E0009F0F0E9460000E94820E0E94100B0E94AF
:1020F000E70C0E94B40F0E946D00F7CFA1E21A2EE8
:10210000AA1BBB1BFD010DC0AA1FBB1FEE1FFF1F9B
:10211000A217B307E407F50720F0A21BB30BE40BEB
:10212000F50B661F771F881F991F1A9469F7609532
:102130007095809590959B01AC01BD01CF010895EC
:10214000EE0FFF1F0590F491E02D0994A29FB001BE
:10215000B39FC001A39F700D811D1124911DB29FDB
:10216000700D811D1124911D08950E94A610A59F38
:10217000900DB49F900DA49F800D911D1124089582
:10218000B7FF0C94B5100E94B510821B930B0895F5
:102190008F929F92AF92BF92CF92DF92EF92FF9277
:1021A000CF93DF93EC01688179818A819B816115EE
:1021B00071058105910521F464E279ED8BE597E0E5
:1021C0002DE133EF41E050E00E946A1149015A01CC
:1021D0009B01AC01A7EAB1E40E94B5106B017C0140
:1021E000ACEEB4EFA50194010E94C310DC01CB0159
:1021F0008C0D9D1DAE1DBF1DB7FF03C00197A1092A
:10220000B04888839983AA83BB83BC01CD019F77A3
:10221000DF91CF91FF90EF90DF90CF90BF90AF9084
:102220009F908F9008958F929F92AF92BF92CF927E
:10223000DF92EF92FF926091600070916100809157
:10224000620090916300611571058105910521F48B
:1022500064E279ED8BE597E02DE133EF41E050E06A
:102260000E946A1149015A019B01AC01A7EAB1E43D
:102270000E94B5106B017C01ACEEB4EFA501940196
:102280000E94C310DC01CB018C0D9D1DAE1DBF1D36
:10229000B7FF03C00197A109B048809360009093F5
:1022A0006100A0936200B0936300BC01CD019F77F1
:1022B000FF90EF90DF90CF90BF90AF909F908F9066
:1022C0000895609360007093610080936200909322
:1022D00063000895052E97FB1EF400940E9481115F
:1022E00057FD07D00E947E1007FC03D04EF40C94DB
:1022F000811150954095309521953F4F4F4F5F4F3D
:10230000089590958095709561957F4F8F4F9F4F61
:062310000895F894FFCFD0
:0423160001000000C2
:00000001FF
